{
  "contractName": "vWorld",
  "abi": [
    {
      "inputs": [],
      "stateMutability": "nonpayable",
      "type": "constructor"
    },
    {
      "anonymous": false,
      "inputs": [
        {
          "indexed": true,
          "internalType": "address",
          "name": "_from",
          "type": "address"
        },
        {
          "indexed": true,
          "internalType": "address",
          "name": "_to",
          "type": "address"
        },
        {
          "indexed": false,
          "internalType": "uint256",
          "name": "_cost",
          "type": "uint256"
        }
      ],
      "name": "EtherTransfer",
      "type": "event"
    },
    {
      "anonymous": false,
      "inputs": [
        {
          "indexed": true,
          "internalType": "address",
          "name": "_from",
          "type": "address"
        },
        {
          "indexed": true,
          "internalType": "address",
          "name": "_to",
          "type": "address"
        },
        {
          "indexed": false,
          "internalType": "uint256",
          "name": "_areaID",
          "type": "uint256"
        }
      ],
      "name": "Transfer",
      "type": "event"
    },
    {
      "anonymous": false,
      "inputs": [
        {
          "indexed": false,
          "internalType": "string",
          "name": "_msg",
          "type": "string"
        },
        {
          "indexed": false,
          "internalType": "uint256",
          "name": "_cost",
          "type": "uint256"
        }
      ],
      "name": "UpdateSalesStatus",
      "type": "event"
    },
    {
      "stateMutability": "payable",
      "type": "fallback"
    },
    {
      "inputs": [
        {
          "internalType": "uint256",
          "name": "",
          "type": "uint256"
        },
        {
          "internalType": "uint256",
          "name": "",
          "type": "uint256"
        }
      ],
      "name": "area_ownerships",
      "outputs": [
        {
          "internalType": "address",
          "name": "",
          "type": "address"
        }
      ],
      "stateMutability": "view",
      "type": "function"
    },
    {
      "inputs": [
        {
          "internalType": "uint256",
          "name": "",
          "type": "uint256"
        }
      ],
      "name": "areas",
      "outputs": [
        {
          "internalType": "address payable",
          "name": "ownerAddress",
          "type": "address"
        },
        {
          "internalType": "string",
          "name": "location",
          "type": "string"
        },
        {
          "internalType": "uint256",
          "name": "cost",
          "type": "uint256"
        },
        {
          "internalType": "uint256",
          "name": "areaID",
          "type": "uint256"
        },
        {
          "internalType": "bool",
          "name": "wantSell",
          "type": "bool"
        }
      ],
      "stateMutability": "view",
      "type": "function"
    },
    {
      "inputs": [],
      "name": "owner",
      "outputs": [
        {
          "internalType": "address",
          "name": "",
          "type": "address"
        }
      ],
      "stateMutability": "view",
      "type": "function"
    },
    {
      "inputs": [],
      "name": "totalAreasCounter",
      "outputs": [
        {
          "internalType": "uint256",
          "name": "",
          "type": "uint256"
        }
      ],
      "stateMutability": "view",
      "type": "function"
    },
    {
      "stateMutability": "payable",
      "type": "receive"
    },
    {
      "inputs": [
        {
          "internalType": "address payable",
          "name": "_ownerAddress",
          "type": "address"
        },
        {
          "internalType": "string",
          "name": "_location",
          "type": "string"
        },
        {
          "internalType": "uint256",
          "name": "_cost",
          "type": "uint256"
        },
        {
          "internalType": "uint256",
          "name": "_areaID",
          "type": "uint256"
        },
        {
          "internalType": "bool",
          "name": "_wantSell",
          "type": "bool"
        }
      ],
      "name": "createArea",
      "outputs": [
        {
          "internalType": "bool",
          "name": "",
          "type": "bool"
        }
      ],
      "stateMutability": "nonpayable",
      "type": "function"
    },
    {
      "inputs": [
        {
          "internalType": "uint256",
          "name": "_areaId",
          "type": "uint256"
        }
      ],
      "name": "wantToSellArea",
      "outputs": [],
      "stateMutability": "nonpayable",
      "type": "function"
    },
    {
      "inputs": [
        {
          "internalType": "uint256",
          "name": "_areaId",
          "type": "uint256"
        }
      ],
      "name": "wantToKeepArea",
      "outputs": [],
      "stateMutability": "nonpayable",
      "type": "function"
    },
    {
      "inputs": [
        {
          "internalType": "uint256",
          "name": "_areaId",
          "type": "uint256"
        },
        {
          "internalType": "uint256",
          "name": "_newCost",
          "type": "uint256"
        }
      ],
      "name": "changeAreaCost",
      "outputs": [],
      "stateMutability": "nonpayable",
      "type": "function"
    },
    {
      "inputs": [
        {
          "internalType": "uint256",
          "name": "_areaId",
          "type": "uint256"
        }
      ],
      "name": "buyArea",
      "outputs": [],
      "stateMutability": "payable",
      "type": "function"
    }
  ],
  "bytecode": "0x60a060405234801561001057600080fd5b5060016000819055503373ffffffffffffffffffffffffffffffffffffffff1660808173ffffffffffffffffffffffffffffffffffffffff16815250506080516117ce61006f600039600081816105dd01526106ee01526117ce6000f3fe60806040526004361061008a5760003560e01c80638da5cb5b116100595780638da5cb5b1461014d5780639b2c612514610178578063a1b4f7ec146101b9578063ef0f0e99146101f6578063f467b4951461021257610091565b80634187938e1461009357806341c09550146100bc5780637f5027a1146100e55780638afa7c271461011057610091565b3661009157005b005b34801561009f57600080fd5b506100ba60048036038101906100b59190610f46565b61023b565b005b3480156100c857600080fd5b506100e360048036038101906100de9190610f46565b6103e1565b005b3480156100f157600080fd5b506100fa610587565b6040516101079190610f82565b60405180910390f35b34801561011c57600080fd5b5061013760048036038101906101329190610f9d565b61058d565b604051610144919061101e565b60405180910390f35b34801561015957600080fd5b506101626105db565b60405161016f919061101e565b60405180910390f35b34801561018457600080fd5b5061019f600480360381019061019a9190610f46565b6105ff565b6040516101b095949392919061110e565b60405180910390f35b3480156101c557600080fd5b506101e060048036038101906101db91906112f5565b6106ea565b6040516101ed919061138c565b60405180910390f35b610210600480360381019061020b9190610f46565b610964565b005b34801561021e57600080fd5b5061023960048036038101906102349190610f9d565b610ce1565b005b600260005403610280576040517f08c379a0000000000000000000000000000000000000000000000000000000008152600401610277906113f3565b60405180910390fd5b6002600081905550803373ffffffffffffffffffffffffffffffffffffffff166003600083815260200190815260200160002060000160009054906101000a900473ffffffffffffffffffffffffffffffffffffffff1673ffffffffffffffffffffffffffffffffffffffff161461032d576040517f08c379a00000000000000000000000000000000000000000000000000000000081526004016103249061145f565b60405180910390fd5b6002821115801561033f575060008210155b61034857600080fd5b6000600360008481526020019081526020016000209050600015158160040160009054906101000a900460ff161515146103b7576040517f08c379a00000000000000000000000000000000000000000000000000000000081526004016103ae906114cb565b60405180910390fd5b60018160040160006101000a81548160ff0219169083151502179055505050600160008190555050565b803373ffffffffffffffffffffffffffffffffffffffff166003600083815260200190815260200160002060000160009054906101000a900473ffffffffffffffffffffffffffffffffffffffff1673ffffffffffffffffffffffffffffffffffffffff1614610486576040517f08c379a000000000000000000000000000000000000000000000000000000000815260040161047d9061145f565b60405180910390fd5b6002600054036104cb576040517f08c379a00000000000000000000000000000000000000000000000000000000081526004016104c2906113f3565b60405180910390fd5b6002600081905550600282111580156104e5575060008210155b6104ee57600080fd5b6000600360008481526020019081526020016000209050600115158160040160009054906101000a900460ff1615151461055d576040517f08c379a0000000000000000000000000000000000000000000000000000000008152600401610554906114cb565b60405180910390fd5b60008160040160006101000a81548160ff0219169083151502179055505060016000819055505050565b60015481565b600260205281600052604060002081815481106105a957600080fd5b906000526020600020016000915091509054906101000a900473ffffffffffffffffffffffffffffffffffffffff1681565b7f000000000000000000000000000000000000000000000000000000000000000081565b60036020528060005260406000206000915090508060000160009054906101000a900473ffffffffffffffffffffffffffffffffffffffff16908060010180546106489061151a565b80601f01602080910402602001604051908101604052809291908181526020018280546106749061151a565b80156106c15780601f10610696576101008083540402835291602001916106c1565b820191906000526020600020905b8154815290600101906020018083116106a457829003601f168201915b5050505050908060020154908060030154908060040160009054906101000a900460ff16905085565b60007f000000000000000000000000000000000000000000000000000000000000000073ffffffffffffffffffffffffffffffffffffffff163373ffffffffffffffffffffffffffffffffffffffff161461074457600080fd5b600260005403610789576040517f08c379a0000000000000000000000000000000000000000000000000000000008152600401610780906113f3565b60405180910390fd5b60026000819055506040518060a001604052808773ffffffffffffffffffffffffffffffffffffffff1681526020018681526020018581526020018481526020018315158152506003600085815260200190815260200160002060008201518160000160006101000a81548173ffffffffffffffffffffffffffffffffffffffff021916908373ffffffffffffffffffffffffffffffffffffffff1602179055506020820151816001019080519060200190610846929190610e59565b50604082015181600201556060820151816003015560808201518160040160006101000a81548160ff0219169083151502179055509050506003600154106108c3576040517f08c379a00000000000000000000000000000000000000000000000000000000081526004016108ba90611597565b60405180910390fd5b600160008154809291906108d6906115e6565b919050555060026000848152602001908152602001600020869080600181540180825580915050600190039060005260206000200160009091909190916101000a81548173ffffffffffffffffffffffffffffffffffffffff021916908373ffffffffffffffffffffffffffffffffffffffff16021790555060019050600160008190555095945050505050565b6002600054036109a9576040517f08c379a00000000000000000000000000000000000000000000000000000000081526004016109a0906113f3565b60405180910390fd5b6002600081905550600281111580156109c3575060008110155b6109cc57600080fd5b60006003600083815260200190815260200160002090506003600083815260200190815260200160002060000160009054906101000a900473ffffffffffffffffffffffffffffffffffffffff1673ffffffffffffffffffffffffffffffffffffffff163373ffffffffffffffffffffffffffffffffffffffff1603610a87576040517f08c379a0000000000000000000000000000000000000000000000000000000008152600401610a7e9061167a565b60405180910390fd5b600115158160040160009054906101000a900460ff16151514610adf576040517f08c379a0000000000000000000000000000000000000000000000000000000008152600401610ad6906116e6565b60405180910390fd5b60006003600084815260200190815260200160002060000160009054906101000a900473ffffffffffffffffffffffffffffffffffffffff1690506000600360008581526020019081526020016000206002015490508173ffffffffffffffffffffffffffffffffffffffff163373ffffffffffffffffffffffffffffffffffffffff167f1c6b7c1dea17aff2728e18224d371cfd5fb0c7c451a86314957d8a6f66dcf78183604051610b929190610f82565b60405180910390a33373ffffffffffffffffffffffffffffffffffffffff168273ffffffffffffffffffffffffffffffffffffffff167fddf252ad1be2c89b69c2b068fc378daa952ba7f163c4a11628f55a4df523b3ef86604051610bf79190610f82565b60405180910390a360008360040160006101000a81548160ff021916908315150217905550338360000160006101000a81548173ffffffffffffffffffffffffffffffffffffffff021916908373ffffffffffffffffffffffffffffffffffffffff16021790555060026000858152602001908152602001600020339080600181540180825580915050600190039060005260206000200160009091909190916101000a81548173ffffffffffffffffffffffffffffffffffffffff021916908373ffffffffffffffffffffffffffffffffffffffff160217905550505050600160008190555050565b813373ffffffffffffffffffffffffffffffffffffffff166003600083815260200190815260200160002060000160009054906101000a900473ffffffffffffffffffffffffffffffffffffffff1673ffffffffffffffffffffffffffffffffffffffff1614610d86576040517f08c379a0000000000000000000000000000000000000000000000000000000008152600401610d7d9061145f565b60405180910390fd5b600260005403610dcb576040517f08c379a0000000000000000000000000000000000000000000000000000000008152600401610dc2906113f3565b60405180910390fd5b600260008190555060028311158015610de5575060008310155b610dee57600080fd5b60008211610e31576040517f08c379a0000000000000000000000000000000000000000000000000000000008152600401610e2890611778565b60405180910390fd5b8160036000858152602001908152602001600020600201819055506001600081905550505050565b828054610e659061151a565b90600052602060002090601f016020900481019282610e875760008555610ece565b82601f10610ea057805160ff1916838001178555610ece565b82800160010185558215610ece579182015b82811115610ecd578251825591602001919060010190610eb2565b5b509050610edb9190610edf565b5090565b5b80821115610ef8576000816000905550600101610ee0565b5090565b6000604051905090565b600080fd5b600080fd5b6000819050919050565b610f2381610f10565b8114610f2e57600080fd5b50565b600081359050610f4081610f1a565b92915050565b600060208284031215610f5c57610f5b610f06565b5b6000610f6a84828501610f31565b91505092915050565b610f7c81610f10565b82525050565b6000602082019050610f976000830184610f73565b92915050565b60008060408385031215610fb457610fb3610f06565b5b6000610fc285828601610f31565b9250506020610fd385828601610f31565b9150509250929050565b600073ffffffffffffffffffffffffffffffffffffffff82169050919050565b600061100882610fdd565b9050919050565b61101881610ffd565b82525050565b6000602082019050611033600083018461100f565b92915050565b600061104482610fdd565b9050919050565b61105481611039565b82525050565b600081519050919050565b600082825260208201905092915050565b60005b83811015611094578082015181840152602081019050611079565b838111156110a3576000848401525b50505050565b6000601f19601f8301169050919050565b60006110c58261105a565b6110cf8185611065565b93506110df818560208601611076565b6110e8816110a9565b840191505092915050565b60008115159050919050565b611108816110f3565b82525050565b600060a082019050611123600083018861104b565b818103602083015261113581876110ba565b90506111446040830186610f73565b6111516060830185610f73565b61115e60808301846110ff565b9695505050505050565b61117181611039565b811461117c57600080fd5b50565b60008135905061118e81611168565b92915050565b600080fd5b600080fd5b7f4e487b7100000000000000000000000000000000000000000000000000000000600052604160045260246000fd5b6111d6826110a9565b810181811067ffffffffffffffff821117156111f5576111f461119e565b5b80604052505050565b6000611208610efc565b905061121482826111cd565b919050565b600067ffffffffffffffff8211156112345761123361119e565b5b61123d826110a9565b9050602081019050919050565b82818337600083830152505050565b600061126c61126784611219565b6111fe565b90508281526020810184848401111561128857611287611199565b5b61129384828561124a565b509392505050565b600082601f8301126112b0576112af611194565b5b81356112c0848260208601611259565b91505092915050565b6112d2816110f3565b81146112dd57600080fd5b50565b6000813590506112ef816112c9565b92915050565b600080600080600060a0868803121561131157611310610f06565b5b600061131f8882890161117f565b955050602086013567ffffffffffffffff8111156113405761133f610f0b565b5b61134c8882890161129b565b945050604061135d88828901610f31565b935050606061136e88828901610f31565b925050608061137f888289016112e0565b9150509295509295909350565b60006020820190506113a160008301846110ff565b92915050565b7f5265656e7472616e637947756172643a207265656e7472616e742063616c6c00600082015250565b60006113dd601f83611065565b91506113e8826113a7565b602082019050919050565b6000602082019050818103600083015261140c816113d0565b9050919050565b7f596f7520646f206e6f74206f776e207468652061726561000000000000000000600082015250565b6000611449601783611065565b915061145482611413565b602082019050919050565b600060208201905081810360008301526114788161143c565b9050919050565b7f616c726564792073656c65637465640000000000000000000000000000000000600082015250565b60006114b5600f83611065565b91506114c08261147f565b602082019050919050565b600060208201905081810360008301526114e4816114a8565b9050919050565b7f4e487b7100000000000000000000000000000000000000000000000000000000600052602260045260246000fd5b6000600282049050600182168061153257607f821691505b602082108103611545576115446114eb565b5b50919050565b7f4e6f74206d6f7265207468616e2033203b290000000000000000000000000000600082015250565b6000611581601283611065565b915061158c8261154b565b602082019050919050565b600060208201905081810360008301526115b081611574565b9050919050565b7f4e487b7100000000000000000000000000000000000000000000000000000000600052601160045260246000fd5b60006115f182610f10565b91507fffffffffffffffffffffffffffffffffffffffffffffffffffffffffffffffff8203611623576116226115b7565b5b600182019050919050565b7f596f7520616c72656479206f776e207468652061726561000000000000000000600082015250565b6000611664601783611065565b915061166f8261162e565b602082019050919050565b6000602082019050818103600083015261169381611657565b9050919050565b7f546869732061726561206974206973206e6f742073656c6c696e670000000000600082015250565b60006116d0601b83611065565b91506116db8261169a565b602082019050919050565b600060208201905081810360008301526116ff816116c3565b9050919050565b7f41726520796f7520747279696e6720746f206769766520697420666f7220667260008201527f65653f0000000000000000000000000000000000000000000000000000000000602082015250565b6000611762602383611065565b915061176d82611706565b604082019050919050565b6000602082019050818103600083015261179181611755565b905091905056fea2646970667358221220dd958396715c72b80af897304baa3df1dc292c795490b45d12f92bb90a9051a064736f6c634300080e0033",
  "immutableReferences": {
    "399": [
      {
        "length": 32,
        "start": 1501
      },
      {
        "length": 32,
        "start": 1774
      }
    ]
  },
  "source": "//SPDX-License-Identifier:MIT\npragma solidity ^0.8.0;\n//compiler using exactly verison 0.8.15. See in package.json ('solc':)\n\n//import safe practices from openzeppelin\nimport \"@openzeppelin/contracts/utils/math/SafeMath.sol\";\n//reentrancyguard will help against reentrancy attacks\nimport \"@openzeppelin/contracts/security/ReentrancyGuard.sol\";\n\n//creation of the main contract\ncontract vWorld is ReentrancyGuard{\n\n    //protection against underflow and overflow attacks\n    using SafeMath for uint;\n    \n    //this way everybody can see who created the contract\n    //keyword immutable used to save gas because it is not saved in storage\n    address public immutable owner;\n\n    //See how many areas there are available, in this case if the owner initialized right the contract, there should be 3 \n    uint public totalAreasCounter;\n\n    //event to put into sale the areas\n    event UpdateSalesStatus(string _msg,uint _cost);\n    //area transfer event with indexed keyword to enable to search for the event using indexed parameters as filters\n    event Transfer(address indexed _from, address indexed _to, uint _areaID);\n    //area Ether Transfer\n    event EtherTransfer(address indexed _from, address indexed _to, uint _cost);\n\n    /*\n    *mapping to see the past ownerships of the areas. Note that this mapping is very gaswise expensive\n    *but for the single contract with 3 areas that we are doing there is no problem. In a bigger project we could \n    *manage to do the same with an event (or log) and the data could be consulted by an external program using javascript\n    *insert the areaId as the uint256 and an index of the ownership for the address to appear\n    */\n    mapping (uint256 => address[]) public area_ownerships;\n    \n    //you can see the details of the area that you like inserting the area Id(0 to 2).\n    mapping(uint256 => Area) public areas; \n\n    struct Area\n    {\n        address payable ownerAddress;\n        string location;\n        uint cost;\n        uint areaID;\n        bool wantSell;\n    }\n\n    modifier onlyOwner\n    {\n        require(msg.sender == owner);\n        _;\n    }\n\n    //only the owners of an area will be able to call certain functions\n    modifier areaOwner(uint256 _areaID)\n    {\n        require(areas[_areaID].ownerAddress == msg.sender, \"You do not own the area\");\n        _;\n    }\n    //initialize the contract\n    constructor()ReentrancyGuard(){\n        owner = msg.sender;\n    }\n\n    //function where the owner of the contract needs to create the areas in the vWorld(not more than 3)\n    function createArea(\n        //to change status\n        //Status _status,\n        address payable _ownerAddress,\n        string memory _location,\n        uint256 _cost,\n        uint256 _areaID,\n        bool _wantSell\n    ) external onlyOwner nonReentrant returns (bool){\n        areas[_areaID] = Area(_ownerAddress, _location, _cost, _areaID, _wantSell);\n        require(totalAreasCounter < 3, \"Not more than 3 ;)\");\n        //the second part from the require statement uses more or less gas depending on how long the message is\n        //we could use a custom error to save some gas there too but I it is not a big deal at the moment.\n        totalAreasCounter ++;\n        //update the mapping where you can check the past owners\n        area_ownerships[_areaID].push(_ownerAddress);\n        return true;\n    }\n\n    function wantToSellArea(uint _areaId)external nonReentrant areaOwner(_areaId){\n        require(_areaId <=2 && _areaId >= 0);\n        Area storage area = areas[_areaId];\n        //it would not happen nothing important if this require would not be here, but basically it is done to not repeat an action\n        //just execute the function if there was not previously desire to sell the area.\n        require(area.wantSell == false,\"alredy selected\");\n        area.wantSell = true;\n    \n        \n    }\n\n    function wantToKeepArea(uint _areaId)\n        external \n        areaOwner(_areaId) \n        nonReentrant \n    {\n        require(_areaId <=2 && _areaId >= 0);\n        Area storage area = areas[_areaId];\n        //just execute the function if there was previously desire to sell the area.\n        require(area.wantSell == true,\"alredy selected\");\n        area.wantSell = false;\n    }\n\n    function changeAreaCost(uint256 _areaId, uint256 _newCost)\n        external\n        areaOwner(_areaId) nonReentrant\n    {\n        require(_areaId <=2 && _areaId >= 0);\n        require(_newCost > 0, \"Are you trying to give it for free?\");\n        areas[_areaId].cost = _newCost;\n    }\n\n    //this function will allow the user to buy a area that is alredy being wanted to be sold\n    //note there is not a bid system, I assumed that it was needed\n    function buyArea(uint256 _areaId) external payable nonReentrant{\n        require(_areaId <=2 && _areaId >= 0);\n        Area storage area = areas[_areaId];\n        //require that the address that wants to buy the area does not alredy own it.\n        require(msg.sender != areas[_areaId].ownerAddress, \"You alredy own the area\");\n        //require that the owner wants to sell the area\n        require(area.wantSell == true, \"This area it is not selling\");\n        address payable AreaOwner = areas[_areaId].ownerAddress;\n        uint AreaPrice = areas[_areaId].cost;\n        //transfer the price of the area\n        emit EtherTransfer(msg.sender, AreaOwner, AreaPrice);\n        //transfer the area\n        emit Transfer(AreaOwner, msg.sender, _areaId);\n        //return the desire to sell the area to false\n        area.wantSell = false;\n        //update the owner address so we can see it when we search for the area details\n        area.ownerAddress = payable(msg.sender);\n        //update the mapping where you can check the past owners\n        area_ownerships[_areaId].push(msg.sender);\n    }\n\n    /*\n    * fallback function because maybe someone calls a function that does not exist or\n    * someone sends ether to the contract without calling any function, therefore we could receive the ether.\n    */\n    fallback() external payable{}\n\n    /*\n    *receive is not really needed but is the data from the msg.data is empty\n    *the smart contract will trigger receive before than fallback\n    */\n    receive() external payable{}\n}",
  "sourcePath": "/home/RJ_Interview/contracts/vWorld.sol",
  "compiler": {
    "name": "solc",
    "version": "0.8.14+commit.80d49f37.Emscripten.clang"
  },
  "schemaVersion": "3.4.8",
  "updatedAt": "2022-07-16T22:18:14.760Z",
  "devdoc": {
    "kind": "dev",
    "methods": {},
    "version": 1
  },
  "userdoc": {
    "kind": "user",
    "methods": {},
    "version": 1
  }
}